{
  "_format": "hh-sol-artifact-1",
  "contractName": "Runner2060coin",
  "sourceName": "contracts/Runner2060coin.sol",
  "abi": [
    {
      "inputs": [
        {
          "internalType": "address",
          "name": "_mintingMaintainerAddress",
          "type": "address"
        },
        {
          "internalType": "address",
          "name": "defaultAdmin",
          "type": "address"
        },
        {
          "internalType": "address",
          "name": "admin",
          "type": "address"
        }
      ],
      "stateMutability": "nonpayable",
      "type": "constructor"
    },
    {
      "inputs": [],
      "name": "AccessControlBadConfirmation",
      "type": "error"
    },
    {
      "inputs": [
        {
          "internalType": "address",
          "name": "account",
          "type": "address"
        },
        {
          "internalType": "bytes32",
          "name": "neededRole",
          "type": "bytes32"
        }
      ],
      "name": "AccessControlUnauthorizedAccount",
      "type": "error"
    },
    {
      "inputs": [],
      "name": "ECDSAInvalidSignature",
      "type": "error"
    },
    {
      "inputs": [
        {
          "internalType": "uint256",
          "name": "length",
          "type": "uint256"
        }
      ],
      "name": "ECDSAInvalidSignatureLength",
      "type": "error"
    },
    {
      "inputs": [
        {
          "internalType": "bytes32",
          "name": "s",
          "type": "bytes32"
        }
      ],
      "name": "ECDSAInvalidSignatureS",
      "type": "error"
    },
    {
      "inputs": [
        {
          "internalType": "address",
          "name": "spender",
          "type": "address"
        },
        {
          "internalType": "uint256",
          "name": "allowance",
          "type": "uint256"
        },
        {
          "internalType": "uint256",
          "name": "needed",
          "type": "uint256"
        }
      ],
      "name": "ERC20InsufficientAllowance",
      "type": "error"
    },
    {
      "inputs": [
        {
          "internalType": "address",
          "name": "sender",
          "type": "address"
        },
        {
          "internalType": "uint256",
          "name": "balance",
          "type": "uint256"
        },
        {
          "internalType": "uint256",
          "name": "needed",
          "type": "uint256"
        }
      ],
      "name": "ERC20InsufficientBalance",
      "type": "error"
    },
    {
      "inputs": [
        {
          "internalType": "address",
          "name": "approver",
          "type": "address"
        }
      ],
      "name": "ERC20InvalidApprover",
      "type": "error"
    },
    {
      "inputs": [
        {
          "internalType": "address",
          "name": "receiver",
          "type": "address"
        }
      ],
      "name": "ERC20InvalidReceiver",
      "type": "error"
    },
    {
      "inputs": [
        {
          "internalType": "address",
          "name": "sender",
          "type": "address"
        }
      ],
      "name": "ERC20InvalidSender",
      "type": "error"
    },
    {
      "inputs": [
        {
          "internalType": "address",
          "name": "spender",
          "type": "address"
        }
      ],
      "name": "ERC20InvalidSpender",
      "type": "error"
    },
    {
      "inputs": [],
      "name": "EnforcedPause",
      "type": "error"
    },
    {
      "inputs": [],
      "name": "ExpectedPause",
      "type": "error"
    },
    {
      "inputs": [],
      "name": "InvalidShortString",
      "type": "error"
    },
    {
      "inputs": [
        {
          "internalType": "string",
          "name": "str",
          "type": "string"
        }
      ],
      "name": "StringTooLong",
      "type": "error"
    },
    {
      "anonymous": false,
      "inputs": [
        {
          "indexed": true,
          "internalType": "address",
          "name": "owner",
          "type": "address"
        },
        {
          "indexed": true,
          "internalType": "address",
          "name": "spender",
          "type": "address"
        },
        {
          "indexed": false,
          "internalType": "uint256",
          "name": "value",
          "type": "uint256"
        }
      ],
      "name": "Approval",
      "type": "event"
    },
    {
      "anonymous": false,
      "inputs": [],
      "name": "EIP712DomainChanged",
      "type": "event"
    },
    {
      "anonymous": false,
      "inputs": [
        {
          "indexed": false,
          "internalType": "address",
          "name": "maintainer",
          "type": "address"
        },
        {
          "indexed": false,
          "internalType": "address",
          "name": "newMaintainer",
          "type": "address"
        }
      ],
      "name": "MaintenanceTransferred",
      "type": "event"
    },
    {
      "anonymous": false,
      "inputs": [
        {
          "indexed": false,
          "internalType": "address",
          "name": "account",
          "type": "address"
        }
      ],
      "name": "Paused",
      "type": "event"
    },
    {
      "anonymous": false,
      "inputs": [
        {
          "indexed": true,
          "internalType": "bytes32",
          "name": "role",
          "type": "bytes32"
        },
        {
          "indexed": true,
          "internalType": "bytes32",
          "name": "previousAdminRole",
          "type": "bytes32"
        },
        {
          "indexed": true,
          "internalType": "bytes32",
          "name": "newAdminRole",
          "type": "bytes32"
        }
      ],
      "name": "RoleAdminChanged",
      "type": "event"
    },
    {
      "anonymous": false,
      "inputs": [
        {
          "indexed": true,
          "internalType": "bytes32",
          "name": "role",
          "type": "bytes32"
        },
        {
          "indexed": true,
          "internalType": "address",
          "name": "account",
          "type": "address"
        },
        {
          "indexed": true,
          "internalType": "address",
          "name": "sender",
          "type": "address"
        }
      ],
      "name": "RoleGranted",
      "type": "event"
    },
    {
      "anonymous": false,
      "inputs": [
        {
          "indexed": true,
          "internalType": "bytes32",
          "name": "role",
          "type": "bytes32"
        },
        {
          "indexed": true,
          "internalType": "address",
          "name": "account",
          "type": "address"
        },
        {
          "indexed": true,
          "internalType": "address",
          "name": "sender",
          "type": "address"
        }
      ],
      "name": "RoleRevoked",
      "type": "event"
    },
    {
      "anonymous": false,
      "inputs": [
        {
          "indexed": true,
          "internalType": "address",
          "name": "from",
          "type": "address"
        },
        {
          "indexed": true,
          "internalType": "address",
          "name": "to",
          "type": "address"
        },
        {
          "indexed": false,
          "internalType": "uint256",
          "name": "value",
          "type": "uint256"
        }
      ],
      "name": "Transfer",
      "type": "event"
    },
    {
      "anonymous": false,
      "inputs": [
        {
          "indexed": false,
          "internalType": "address",
          "name": "account",
          "type": "address"
        }
      ],
      "name": "Unpaused",
      "type": "event"
    },
    {
      "inputs": [],
      "name": "ADMIN_ROLE",
      "outputs": [
        {
          "internalType": "bytes32",
          "name": "",
          "type": "bytes32"
        }
      ],
      "stateMutability": "view",
      "type": "function"
    },
    {
      "inputs": [],
      "name": "DEFAULT_ADMIN_ROLE",
      "outputs": [
        {
          "internalType": "bytes32",
          "name": "",
          "type": "bytes32"
        }
      ],
      "stateMutability": "view",
      "type": "function"
    },
    {
      "inputs": [
        {
          "internalType": "address",
          "name": "owner",
          "type": "address"
        },
        {
          "internalType": "address",
          "name": "spender",
          "type": "address"
        }
      ],
      "name": "allowance",
      "outputs": [
        {
          "internalType": "uint256",
          "name": "",
          "type": "uint256"
        }
      ],
      "stateMutability": "view",
      "type": "function"
    },
    {
      "inputs": [
        {
          "internalType": "address",
          "name": "spender",
          "type": "address"
        },
        {
          "internalType": "uint256",
          "name": "value",
          "type": "uint256"
        }
      ],
      "name": "approve",
      "outputs": [
        {
          "internalType": "bool",
          "name": "",
          "type": "bool"
        }
      ],
      "stateMutability": "nonpayable",
      "type": "function"
    },
    {
      "inputs": [
        {
          "internalType": "address",
          "name": "account",
          "type": "address"
        }
      ],
      "name": "balanceOf",
      "outputs": [
        {
          "internalType": "uint256",
          "name": "",
          "type": "uint256"
        }
      ],
      "stateMutability": "view",
      "type": "function"
    },
    {
      "inputs": [
        {
          "internalType": "uint256",
          "name": "value",
          "type": "uint256"
        }
      ],
      "name": "burn",
      "outputs": [],
      "stateMutability": "nonpayable",
      "type": "function"
    },
    {
      "inputs": [
        {
          "internalType": "address",
          "name": "_from",
          "type": "address"
        },
        {
          "internalType": "uint256",
          "name": "_amount",
          "type": "uint256"
        }
      ],
      "name": "burnByAdmin",
      "outputs": [],
      "stateMutability": "nonpayable",
      "type": "function"
    },
    {
      "inputs": [
        {
          "internalType": "address",
          "name": "account",
          "type": "address"
        },
        {
          "internalType": "uint256",
          "name": "value",
          "type": "uint256"
        }
      ],
      "name": "burnFrom",
      "outputs": [],
      "stateMutability": "nonpayable",
      "type": "function"
    },
    {
      "inputs": [],
      "name": "decimals",
      "outputs": [
        {
          "internalType": "uint8",
          "name": "",
          "type": "uint8"
        }
      ],
      "stateMutability": "view",
      "type": "function"
    },
    {
      "inputs": [],
      "name": "eip712Domain",
      "outputs": [
        {
          "internalType": "bytes1",
          "name": "fields",
          "type": "bytes1"
        },
        {
          "internalType": "string",
          "name": "name",
          "type": "string"
        },
        {
          "internalType": "string",
          "name": "version",
          "type": "string"
        },
        {
          "internalType": "uint256",
          "name": "chainId",
          "type": "uint256"
        },
        {
          "internalType": "address",
          "name": "verifyingContract",
          "type": "address"
        },
        {
          "internalType": "bytes32",
          "name": "salt",
          "type": "bytes32"
        },
        {
          "internalType": "uint256[]",
          "name": "extensions",
          "type": "uint256[]"
        }
      ],
      "stateMutability": "view",
      "type": "function"
    },
    {
      "inputs": [],
      "name": "getMintingMaintainer",
      "outputs": [
        {
          "internalType": "address",
          "name": "",
          "type": "address"
        }
      ],
      "stateMutability": "view",
      "type": "function"
    },
    {
      "inputs": [
        {
          "internalType": "bytes32",
          "name": "role",
          "type": "bytes32"
        }
      ],
      "name": "getRoleAdmin",
      "outputs": [
        {
          "internalType": "bytes32",
          "name": "",
          "type": "bytes32"
        }
      ],
      "stateMutability": "view",
      "type": "function"
    },
    {
      "inputs": [
        {
          "internalType": "bytes32",
          "name": "role",
          "type": "bytes32"
        },
        {
          "internalType": "address",
          "name": "account",
          "type": "address"
        }
      ],
      "name": "grantRole",
      "outputs": [],
      "stateMutability": "nonpayable",
      "type": "function"
    },
    {
      "inputs": [
        {
          "internalType": "bytes32",
          "name": "role",
          "type": "bytes32"
        },
        {
          "internalType": "address",
          "name": "account",
          "type": "address"
        }
      ],
      "name": "hasRole",
      "outputs": [
        {
          "internalType": "bool",
          "name": "",
          "type": "bool"
        }
      ],
      "stateMutability": "view",
      "type": "function"
    },
    {
      "inputs": [
        {
          "internalType": "bytes",
          "name": "_mintingMaintainerSignedMsg",
          "type": "bytes"
        },
        {
          "components": [
            {
              "internalType": "address",
              "name": "user",
              "type": "address"
            },
            {
              "internalType": "uint256",
              "name": "amount",
              "type": "uint256"
            },
            {
              "internalType": "bytes32",
              "name": "hash",
              "type": "bytes32"
            }
          ],
          "internalType": "struct Runner2060coin.MintingParams",
          "name": "_mintingParams",
          "type": "tuple"
        }
      ],
      "name": "mint",
      "outputs": [],
      "stateMutability": "nonpayable",
      "type": "function"
    },
    {
      "inputs": [
        {
          "internalType": "address",
          "name": "_to",
          "type": "address"
        },
        {
          "internalType": "uint256",
          "name": "_amount",
          "type": "uint256"
        }
      ],
      "name": "mintByAdmin",
      "outputs": [],
      "stateMutability": "nonpayable",
      "type": "function"
    },
    {
      "inputs": [],
      "name": "name",
      "outputs": [
        {
          "internalType": "string",
          "name": "",
          "type": "string"
        }
      ],
      "stateMutability": "view",
      "type": "function"
    },
    {
      "inputs": [],
      "name": "pause",
      "outputs": [],
      "stateMutability": "nonpayable",
      "type": "function"
    },
    {
      "inputs": [],
      "name": "paused",
      "outputs": [
        {
          "internalType": "bool",
          "name": "",
          "type": "bool"
        }
      ],
      "stateMutability": "view",
      "type": "function"
    },
    {
      "inputs": [
        {
          "internalType": "bytes32",
          "name": "role",
          "type": "bytes32"
        },
        {
          "internalType": "address",
          "name": "callerConfirmation",
          "type": "address"
        }
      ],
      "name": "renounceRole",
      "outputs": [],
      "stateMutability": "nonpayable",
      "type": "function"
    },
    {
      "inputs": [
        {
          "internalType": "bytes32",
          "name": "role",
          "type": "bytes32"
        },
        {
          "internalType": "address",
          "name": "account",
          "type": "address"
        }
      ],
      "name": "revokeRole",
      "outputs": [],
      "stateMutability": "nonpayable",
      "type": "function"
    },
    {
      "inputs": [
        {
          "internalType": "address",
          "name": "_mintingMaintainer",
          "type": "address"
        }
      ],
      "name": "setMintingMaintainer",
      "outputs": [],
      "stateMutability": "nonpayable",
      "type": "function"
    },
    {
      "inputs": [
        {
          "internalType": "bytes4",
          "name": "interfaceId",
          "type": "bytes4"
        }
      ],
      "name": "supportsInterface",
      "outputs": [
        {
          "internalType": "bool",
          "name": "",
          "type": "bool"
        }
      ],
      "stateMutability": "view",
      "type": "function"
    },
    {
      "inputs": [],
      "name": "symbol",
      "outputs": [
        {
          "internalType": "string",
          "name": "",
          "type": "string"
        }
      ],
      "stateMutability": "view",
      "type": "function"
    },
    {
      "inputs": [],
      "name": "totalSupply",
      "outputs": [
        {
          "internalType": "uint256",
          "name": "",
          "type": "uint256"
        }
      ],
      "stateMutability": "view",
      "type": "function"
    },
    {
      "inputs": [
        {
          "internalType": "address",
          "name": "to",
          "type": "address"
        },
        {
          "internalType": "uint256",
          "name": "value",
          "type": "uint256"
        }
      ],
      "name": "transfer",
      "outputs": [
        {
          "internalType": "bool",
          "name": "",
          "type": "bool"
        }
      ],
      "stateMutability": "nonpayable",
      "type": "function"
    },
    {
      "inputs": [
        {
          "internalType": "address",
          "name": "from",
          "type": "address"
        },
        {
          "internalType": "address",
          "name": "to",
          "type": "address"
        },
        {
          "internalType": "uint256",
          "name": "value",
          "type": "uint256"
        }
      ],
      "name": "transferFrom",
      "outputs": [
        {
          "internalType": "bool",
          "name": "",
          "type": "bool"
        }
      ],
      "stateMutability": "nonpayable",
      "type": "function"
    },
    {
      "inputs": [],
      "name": "unpause",
      "outputs": [],
      "stateMutability": "nonpayable",
      "type": "function"
    }
  ],
  "bytecode": "0x6101606040523480156200001257600080fd5b5060405162003704380380620037048339818101604052810190620000389190620005a1565b6040518060400160405280600e81526020017f52756e6e657232303630636f696e0000000000000000000000000000000000008152506040518060400160405280600281526020017f56310000000000000000000000000000000000000000000000000000000000008152506040518060400160405280600e81526020017f52756e6e657232303630636f696e0000000000000000000000000000000000008152506040518060400160405280600581526020017f537552756e000000000000000000000000000000000000000000000000000000815250816003908162000121919062000877565b50806004908162000133919062000877565b5050506000600560006101000a81548160ff021916908315150217905550620001676007836200029460201b90919060201c565b6101208181525050620001856008826200029460201b90919060201c565b6101408181525050818051906020012060e08181525050808051906020012061010081815250504660a08181525050620001c4620002ec60201b60201c565b608081815250503073ffffffffffffffffffffffffffffffffffffffff1660c08173ffffffffffffffffffffffffffffffffffffffff1681525050505082600a60006101000a81548173ffffffffffffffffffffffffffffffffffffffff021916908373ffffffffffffffffffffffffffffffffffffffff160217905550620002576000801b836200034960201b60201c565b506200028a7fa49807205ce4d355092ef5a8a18f56e8913cf4a201fbe287825b095693c21775826200034960201b60201c565b5050505062000b4d565b6000602083511015620002ba57620002b2836200044d60201b60201c565b9050620002e6565b82620002cc83620004ba60201b60201c565b6000019081620002dd919062000877565b5060ff60001b90505b92915050565b60007f8b73c3c69bb8fe3d512ecc4cf759cc79239f7b179b0ffacaa9a75d522b39400f60e0516101005146306040516020016200032e9594939291906200099b565b60405160208183030381529060405280519060200120905090565b60006200035d8383620004c460201b60201c565b620004425760016006600085815260200190815260200160002060000160008473ffffffffffffffffffffffffffffffffffffffff1673ffffffffffffffffffffffffffffffffffffffff16815260200190815260200160002060006101000a81548160ff021916908315150217905550620003de6200052f60201b60201c565b73ffffffffffffffffffffffffffffffffffffffff168273ffffffffffffffffffffffffffffffffffffffff16847f2f8788117e7eff1d82e926ec794901d17c78024a50270940304540a733656f0d60405160405180910390a46001905062000447565b600090505b92915050565b600080829050601f815111156200049d57826040517f305a27a900000000000000000000000000000000000000000000000000000000815260040162000494919062000a87565b60405180910390fd5b805181620004ab9062000add565b60001c1760001b915050919050565b6000819050919050565b60006006600084815260200190815260200160002060000160008373ffffffffffffffffffffffffffffffffffffffff1673ffffffffffffffffffffffffffffffffffffffff16815260200190815260200160002060009054906101000a900460ff16905092915050565b600033905090565b600080fd5b600073ffffffffffffffffffffffffffffffffffffffff82169050919050565b600062000569826200053c565b9050919050565b6200057b816200055c565b81146200058757600080fd5b50565b6000815190506200059b8162000570565b92915050565b600080600060608486031215620005bd57620005bc62000537565b5b6000620005cd868287016200058a565b9350506020620005e0868287016200058a565b9250506040620005f3868287016200058a565b9150509250925092565b600081519050919050565b7f4e487b7100000000000000000000000000000000000000000000000000000000600052604160045260246000fd5b7f4e487b7100000000000000000000000000000000000000000000000000000000600052602260045260246000fd5b600060028204905060018216806200067f57607f821691505b60208210810362000695576200069462000637565b5b50919050565b60008190508160005260206000209050919050565b60006020601f8301049050919050565b600082821b905092915050565b600060088302620006ff7fffffffffffffffffffffffffffffffffffffffffffffffffffffffffffffffff82620006c0565b6200070b8683620006c0565b95508019841693508086168417925050509392505050565b6000819050919050565b6000819050919050565b600062000758620007526200074c8462000723565b6200072d565b62000723565b9050919050565b6000819050919050565b620007748362000737565b6200078c62000783826200075f565b848454620006cd565b825550505050565b600090565b620007a362000794565b620007b081848462000769565b505050565b5b81811015620007d857620007cc60008262000799565b600181019050620007b6565b5050565b601f8211156200082757620007f1816200069b565b620007fc84620006b0565b810160208510156200080c578190505b620008246200081b85620006b0565b830182620007b5565b50505b505050565b600082821c905092915050565b60006200084c600019846008026200082c565b1980831691505092915050565b600062000867838362000839565b9150826002028217905092915050565b6200088282620005fd565b67ffffffffffffffff8111156200089e576200089d62000608565b5b620008aa825462000666565b620008b7828285620007dc565b600060209050601f831160018114620008ef5760008415620008da578287015190505b620008e6858262000859565b86555062000956565b601f198416620008ff866200069b565b60005b82811015620009295784890151825560018201915060208501945060208101905062000902565b8683101562000949578489015162000945601f89168262000839565b8355505b6001600288020188555050505b505050505050565b6000819050919050565b62000973816200095e565b82525050565b620009848162000723565b82525050565b62000995816200055c565b82525050565b600060a082019050620009b2600083018862000968565b620009c1602083018762000968565b620009d0604083018662000968565b620009df606083018562000979565b620009ee60808301846200098a565b9695505050505050565b600082825260208201905092915050565b60005b8381101562000a2957808201518184015260208101905062000a0c565b60008484015250505050565b6000601f19601f8301169050919050565b600062000a5382620005fd565b62000a5f8185620009f8565b935062000a7181856020860162000a09565b62000a7c8162000a35565b840191505092915050565b6000602082019050818103600083015262000aa3818462000a46565b905092915050565b600081519050919050565b6000819050602082019050919050565b600062000ad482516200095e565b80915050919050565b600062000aea8262000aab565b8262000af68462000ab6565b905062000b038162000ac6565b9250602082101562000b465762000b417fffffffffffffffffffffffffffffffffffffffffffffffffffffffffffffffff83602003600802620006c0565b831692505b5050919050565b60805160a05160c05160e051610100516101205161014051612b5c62000ba86000396000611417015260006113dc01526000611c7401526000611c53015260006118ee015260006119440152600061196d0152612b5c6000f3fe608060405234801561001057600080fd5b50600436106101c45760003560e01c806375b238fc116100f957806395d89b4111610097578063af3da2f411610071578063af3da2f4146104e7578063bfc729ec14610503578063d547741f14610521578063dd62ed3e1461053d576101c4565b806395d89b411461047b578063a217fddf14610499578063a9059cbb146104b7576101c4565b806384b0196e116100d357806384b0196e146103ef57806388a094e7146104135780638c3db76c1461042f57806391d148541461044b576101c4565b806375b238fc146103ab57806379cc6790146103c95780638456cb59146103e5576101c4565b8063313ce5671161016657806342966c681161014057806342966c68146103255780635ad748e4146103415780635c975abb1461035d57806370a082311461037b576101c4565b8063313ce567146102e157806336568abe146102ff5780633f4ba83a1461031b576101c4565b806318160ddd116101a257806318160ddd1461024757806323b872dd14610265578063248a9ca3146102955780632f2ff15d146102c5576101c4565b806301ffc9a7146101c957806306fdde03146101f9578063095ea7b314610217575b600080fd5b6101e360048036038101906101de919061208f565b61056d565b6040516101f091906120d7565b60405180910390f35b6102016105e7565b60405161020e9190612182565b60405180910390f35b610231600480360381019061022c9190612238565b610679565b60405161023e91906120d7565b60405180910390f35b61024f61069c565b60405161025c9190612287565b60405180910390f35b61027f600480360381019061027a91906122a2565b6106a6565b60405161028c91906120d7565b60405180910390f35b6102af60048036038101906102aa919061232b565b6106d5565b6040516102bc9190612367565b60405180910390f35b6102df60048036038101906102da9190612382565b6106f5565b005b6102e9610717565b6040516102f691906123de565b60405180910390f35b61031960048036038101906103149190612382565b610720565b005b61032361079b565b005b61033f600480360381019061033a91906123f9565b6107d0565b005b61035b60048036038101906103569190612238565b6107e4565b005b61036561081d565b60405161037291906120d7565b60405180910390f35b61039560048036038101906103909190612426565b610834565b6040516103a29190612287565b60405180910390f35b6103b361087c565b6040516103c09190612367565b60405180910390f35b6103e360048036038101906103de9190612238565b6108a0565b005b6103ed6108c0565b005b6103f76108f5565b60405161040a979695949392919061255b565b60405180910390f35b61042d60048036038101906104289190612668565b61099f565b005b61044960048036038101906104449190612426565b610b89565b005b61046560048036038101906104609190612382565b610c53565b60405161047291906120d7565b60405180910390f35b610483610cbe565b6040516104909190612182565b60405180910390f35b6104a1610d50565b6040516104ae9190612367565b60405180910390f35b6104d160048036038101906104cc9190612238565b610d57565b6040516104de91906120d7565b60405180910390f35b61050160048036038101906104fc9190612238565b610d7a565b005b61050b610db3565b60405161051891906126c8565b60405180910390f35b61053b60048036038101906105369190612382565b610ddd565b005b610557600480360381019061055291906126e3565b610dff565b6040516105649190612287565b60405180910390f35b60007f7965db0b000000000000000000000000000000000000000000000000000000007bffffffffffffffffffffffffffffffffffffffffffffffffffffffff1916827bffffffffffffffffffffffffffffffffffffffffffffffffffffffff191614806105e057506105df82610e86565b5b9050919050565b6060600380546105f690612752565b80601f016020809104026020016040519081016040528092919081815260200182805461062290612752565b801561066f5780601f106106445761010080835404028352916020019161066f565b820191906000526020600020905b81548152906001019060200180831161065257829003601f168201915b5050505050905090565b600080610684610ef0565b9050610691818585610ef8565b600191505092915050565b6000600254905090565b6000806106b1610ef0565b90506106be858285610f0a565b6106c9858585610f9e565b60019150509392505050565b600060066000838152602001908152602001600020600101549050919050565b6106fe826106d5565b61070781611092565b61071183836110a6565b50505050565b60006012905090565b610728610ef0565b73ffffffffffffffffffffffffffffffffffffffff168173ffffffffffffffffffffffffffffffffffffffff161461078c576040517f6697b23200000000000000000000000000000000000000000000000000000000815260040160405180910390fd5b6107968282611198565b505050565b7fa49807205ce4d355092ef5a8a18f56e8913cf4a201fbe287825b095693c217756107c581611092565b6107cd61128b565b50565b6107e16107db610ef0565b826112ee565b50565b7fa49807205ce4d355092ef5a8a18f56e8913cf4a201fbe287825b095693c2177561080e81611092565b61081883836112ee565b505050565b6000600560009054906101000a900460ff16905090565b60008060008373ffffffffffffffffffffffffffffffffffffffff1673ffffffffffffffffffffffffffffffffffffffff168152602001908152602001600020549050919050565b7fa49807205ce4d355092ef5a8a18f56e8913cf4a201fbe287825b095693c2177581565b6108b2826108ac610ef0565b83610f0a565b6108bc82826112ee565b5050565b7fa49807205ce4d355092ef5a8a18f56e8913cf4a201fbe287825b095693c217756108ea81611092565b6108f2611370565b50565b6000606080600080600060606109096113d3565b61091161140e565b46306000801b600067ffffffffffffffff81111561093257610931612783565b5b6040519080825280602002602001820160405280156109605781602001602082028036833780820191505090505b507f0f00000000000000000000000000000000000000000000000000000000000000959493929190965096509650965096509650965090919293949596565b7fa49807205ce4d355092ef5a8a18f56e8913cf4a201fbe287825b095693c217756109c981611092565b600984846040516109db9291906127f1565b908152602001604051809103902060009054906101000a900460ff1615610a37576040517f08c379a0000000000000000000000000000000000000000000000000000000008152600401610a2e9061287c565b60405180910390fd5b600160098585604051610a4b9291906127f1565b908152602001604051809103902060006101000a81548160ff0219169083151502179055506000610a83610a7e84611449565b6114b9565b9050610ad38186868080601f016020809104026020016040519081016040528093929190818152602001838380828437600081840152601f19601f820116905080830192505050505050506114d3565b73ffffffffffffffffffffffffffffffffffffffff16600a60009054906101000a900473ffffffffffffffffffffffffffffffffffffffff1673ffffffffffffffffffffffffffffffffffffffff1614610b62576040517f08c379a0000000000000000000000000000000000000000000000000000000008152600401610b599061290e565b60405180910390fd5b610b82836000016020810190610b789190612426565b84602001356114ff565b5050505050565b7fa49807205ce4d355092ef5a8a18f56e8913cf4a201fbe287825b095693c21775610bb381611092565b7fbc157343dee59c7d3bc10b9c0805b98a15cdbaa45df5e30bf3c81f6439d0a761600a60009054906101000a900473ffffffffffffffffffffffffffffffffffffffff1683604051610c0692919061292e565b60405180910390a181600a60006101000a81548173ffffffffffffffffffffffffffffffffffffffff021916908373ffffffffffffffffffffffffffffffffffffffff1602179055505050565b60006006600084815260200190815260200160002060000160008373ffffffffffffffffffffffffffffffffffffffff1673ffffffffffffffffffffffffffffffffffffffff16815260200190815260200160002060009054906101000a900460ff16905092915050565b606060048054610ccd90612752565b80601f0160208091040260200160405190810160405280929190818152602001828054610cf990612752565b8015610d465780601f10610d1b57610100808354040283529160200191610d46565b820191906000526020600020905b815481529060010190602001808311610d2957829003601f168201915b5050505050905090565b6000801b81565b600080610d62610ef0565b9050610d6f818585610f9e565b600191505092915050565b7fa49807205ce4d355092ef5a8a18f56e8913cf4a201fbe287825b095693c21775610da481611092565b610dae83836114ff565b505050565b6000600a60009054906101000a900473ffffffffffffffffffffffffffffffffffffffff16905090565b610de6826106d5565b610def81611092565b610df98383611198565b50505050565b6000600160008473ffffffffffffffffffffffffffffffffffffffff1673ffffffffffffffffffffffffffffffffffffffff16815260200190815260200160002060008373ffffffffffffffffffffffffffffffffffffffff1673ffffffffffffffffffffffffffffffffffffffff16815260200190815260200160002054905092915050565b60007f01ffc9a7000000000000000000000000000000000000000000000000000000007bffffffffffffffffffffffffffffffffffffffffffffffffffffffff1916827bffffffffffffffffffffffffffffffffffffffffffffffffffffffff1916149050919050565b600033905090565b610f058383836001611581565b505050565b6000610f168484610dff565b90507fffffffffffffffffffffffffffffffffffffffffffffffffffffffffffffffff8114610f985781811015610f88578281836040517ffb8f41b2000000000000000000000000000000000000000000000000000000008152600401610f7f93929190612957565b60405180910390fd5b610f9784848484036000611581565b5b50505050565b600073ffffffffffffffffffffffffffffffffffffffff168373ffffffffffffffffffffffffffffffffffffffff16036110105760006040517f96c6fd1e00000000000000000000000000000000000000000000000000000000815260040161100791906126c8565b60405180910390fd5b600073ffffffffffffffffffffffffffffffffffffffff168273ffffffffffffffffffffffffffffffffffffffff16036110825760006040517fec442f0500000000000000000000000000000000000000000000000000000000815260040161107991906126c8565b60405180910390fd5b61108d838383611758565b505050565b6110a38161109e610ef0565b611768565b50565b60006110b28383610c53565b61118d5760016006600085815260200190815260200160002060000160008473ffffffffffffffffffffffffffffffffffffffff1673ffffffffffffffffffffffffffffffffffffffff16815260200190815260200160002060006101000a81548160ff02191690831515021790555061112a610ef0565b73ffffffffffffffffffffffffffffffffffffffff168273ffffffffffffffffffffffffffffffffffffffff16847f2f8788117e7eff1d82e926ec794901d17c78024a50270940304540a733656f0d60405160405180910390a460019050611192565b600090505b92915050565b60006111a48383610c53565b156112805760006006600085815260200190815260200160002060000160008473ffffffffffffffffffffffffffffffffffffffff1673ffffffffffffffffffffffffffffffffffffffff16815260200190815260200160002060006101000a81548160ff02191690831515021790555061121d610ef0565b73ffffffffffffffffffffffffffffffffffffffff168273ffffffffffffffffffffffffffffffffffffffff16847ff6391f5c32d9c69d2a47ea670b442974b53935d1edc7fd64eb21e047a839171b60405160405180910390a460019050611285565b600090505b92915050565b6112936117b9565b6000600560006101000a81548160ff0219169083151502179055507f5db9ee0a495bf2e6ff9c91a7834c1ba4fdd244a5e8aa4e537bd38aeae4b073aa6112d7610ef0565b6040516112e491906126c8565b60405180910390a1565b600073ffffffffffffffffffffffffffffffffffffffff168273ffffffffffffffffffffffffffffffffffffffff16036113605760006040517f96c6fd1e00000000000000000000000000000000000000000000000000000000815260040161135791906126c8565b60405180910390fd5b61136c82600083611758565b5050565b6113786117f9565b6001600560006101000a81548160ff0219169083151502179055507f62e78cea01bee320cd4e420270b5ea74000d11b0c9f74754ebdbfc544b05a2586113bc610ef0565b6040516113c991906126c8565b60405180910390a1565b606061140960077f000000000000000000000000000000000000000000000000000000000000000061183a90919063ffffffff16565b905090565b606061144460087f000000000000000000000000000000000000000000000000000000000000000061183a90919063ffffffff16565b905090565b60007fe2f5db3416f0080574777791b66f1a232b46812aaa426dcd38b60ad433e24b4d82600001602081019061147f9190612426565b8360200135846040013560405160200161149c949392919061298e565b604051602081830303815290604052805190602001209050919050565b60006114cc6114c66118ea565b836119a1565b9050919050565b6000806000806114e386866119e2565b9250925092506114f38282611a3e565b82935050505092915050565b600073ffffffffffffffffffffffffffffffffffffffff168273ffffffffffffffffffffffffffffffffffffffff16036115715760006040517fec442f0500000000000000000000000000000000000000000000000000000000815260040161156891906126c8565b60405180910390fd5b61157d60008383611758565b5050565b600073ffffffffffffffffffffffffffffffffffffffff168473ffffffffffffffffffffffffffffffffffffffff16036115f35760006040517fe602df050000000000000000000000000000000000000000000000000000000081526004016115ea91906126c8565b60405180910390fd5b600073ffffffffffffffffffffffffffffffffffffffff168373ffffffffffffffffffffffffffffffffffffffff16036116655760006040517f94280d6200000000000000000000000000000000000000000000000000000000815260040161165c91906126c8565b60405180910390fd5b81600160008673ffffffffffffffffffffffffffffffffffffffff1673ffffffffffffffffffffffffffffffffffffffff16815260200190815260200160002060008573ffffffffffffffffffffffffffffffffffffffff1673ffffffffffffffffffffffffffffffffffffffff168152602001908152602001600020819055508015611752578273ffffffffffffffffffffffffffffffffffffffff168473ffffffffffffffffffffffffffffffffffffffff167f8c5be1e5ebec7d5bd14f71427d1e84f3dd0314c0f7b2291e5b200ac8c7c3b925846040516117499190612287565b60405180910390a35b50505050565b611763838383611ba2565b505050565b6117728282610c53565b6117b55780826040517fe2517d3f0000000000000000000000000000000000000000000000000000000081526004016117ac9291906129d3565b60405180910390fd5b5050565b6117c161081d565b6117f7576040517f8dfc202b00000000000000000000000000000000000000000000000000000000815260040160405180910390fd5b565b61180161081d565b15611838576040517fd93c066500000000000000000000000000000000000000000000000000000000815260040160405180910390fd5b565b606060ff60001b83146118575761185083611bba565b90506118e4565b81805461186390612752565b80601f016020809104026020016040519081016040528092919081815260200182805461188f90612752565b80156118dc5780601f106118b1576101008083540402835291602001916118dc565b820191906000526020600020905b8154815290600101906020018083116118bf57829003601f168201915b505050505090505b92915050565b60007f000000000000000000000000000000000000000000000000000000000000000073ffffffffffffffffffffffffffffffffffffffff163073ffffffffffffffffffffffffffffffffffffffff1614801561196657507f000000000000000000000000000000000000000000000000000000000000000046145b15611993577f0000000000000000000000000000000000000000000000000000000000000000905061199e565b61199b611c2e565b90505b90565b60006040517f190100000000000000000000000000000000000000000000000000000000000081528360028201528260228201526042812091505092915050565b60008060006041845103611a275760008060006020870151925060408701519150606087015160001a9050611a1988828585611cc4565b955095509550505050611a37565b60006002855160001b9250925092505b9250925092565b60006003811115611a5257611a516129fc565b5b826003811115611a6557611a646129fc565b5b0315611b9e5760016003811115611a7f57611a7e6129fc565b5b826003811115611a9257611a916129fc565b5b03611ac9576040517ff645eedf00000000000000000000000000000000000000000000000000000000815260040160405180910390fd5b60026003811115611add57611adc6129fc565b5b826003811115611af057611aef6129fc565b5b03611b35578060001c6040517ffce698f7000000000000000000000000000000000000000000000000000000008152600401611b2c9190612287565b60405180910390fd5b600380811115611b4857611b476129fc565b5b826003811115611b5b57611b5a6129fc565b5b03611b9d57806040517fd78bce0c000000000000000000000000000000000000000000000000000000008152600401611b949190612367565b60405180910390fd5b5b5050565b611baa6117f9565b611bb5838383611db8565b505050565b60606000611bc783611fdd565b90506000602067ffffffffffffffff811115611be657611be5612783565b5b6040519080825280601f01601f191660200182016040528015611c185781602001600182028036833780820191505090505b5090508181528360208201528092505050919050565b60007f8b73c3c69bb8fe3d512ecc4cf759cc79239f7b179b0ffacaa9a75d522b39400f7f00000000000000000000000000000000000000000000000000000000000000007f00000000000000000000000000000000000000000000000000000000000000004630604051602001611ca9959493929190612a2b565b60405160208183030381529060405280519060200120905090565b60008060007f7fffffffffffffffffffffffffffffff5d576e7357a4501ddfe92f46681b20a08460001c1115611d04576000600385925092509250611dae565b600060018888888860405160008152602001604052604051611d299493929190612a7e565b6020604051602081039080840390855afa158015611d4b573d6000803e3d6000fd5b505050602060405103519050600073ffffffffffffffffffffffffffffffffffffffff168173ffffffffffffffffffffffffffffffffffffffff1603611d9f57600060016000801b93509350935050611dae565b8060008060001b935093509350505b9450945094915050565b600073ffffffffffffffffffffffffffffffffffffffff168373ffffffffffffffffffffffffffffffffffffffff1603611e0a578060026000828254611dfe9190612af2565b92505081905550611edd565b60008060008573ffffffffffffffffffffffffffffffffffffffff1673ffffffffffffffffffffffffffffffffffffffff16815260200190815260200160002054905081811015611e96578381836040517fe450d38c000000000000000000000000000000000000000000000000000000008152600401611e8d93929190612957565b60405180910390fd5b8181036000808673ffffffffffffffffffffffffffffffffffffffff1673ffffffffffffffffffffffffffffffffffffffff16815260200190815260200160002081905550505b600073ffffffffffffffffffffffffffffffffffffffff168273ffffffffffffffffffffffffffffffffffffffff1603611f265780600260008282540392505081905550611f73565b806000808473ffffffffffffffffffffffffffffffffffffffff1673ffffffffffffffffffffffffffffffffffffffff168152602001908152602001600020600082825401925050819055505b8173ffffffffffffffffffffffffffffffffffffffff168373ffffffffffffffffffffffffffffffffffffffff167fddf252ad1be2c89b69c2b068fc378daa952ba7f163c4a11628f55a4df523b3ef83604051611fd09190612287565b60405180910390a3505050565b60008060ff8360001c169050601f811115612024576040517fb3512b0c00000000000000000000000000000000000000000000000000000000815260040160405180910390fd5b80915050919050565b600080fd5b600080fd5b60007fffffffff0000000000000000000000000000000000000000000000000000000082169050919050565b61206c81612037565b811461207757600080fd5b50565b60008135905061208981612063565b92915050565b6000602082840312156120a5576120a461202d565b5b60006120b38482850161207a565b91505092915050565b60008115159050919050565b6120d1816120bc565b82525050565b60006020820190506120ec60008301846120c8565b92915050565b600081519050919050565b600082825260208201905092915050565b60005b8381101561212c578082015181840152602081019050612111565b60008484015250505050565b6000601f19601f8301169050919050565b6000612154826120f2565b61215e81856120fd565b935061216e81856020860161210e565b61217781612138565b840191505092915050565b6000602082019050818103600083015261219c8184612149565b905092915050565b600073ffffffffffffffffffffffffffffffffffffffff82169050919050565b60006121cf826121a4565b9050919050565b6121df816121c4565b81146121ea57600080fd5b50565b6000813590506121fc816121d6565b92915050565b6000819050919050565b61221581612202565b811461222057600080fd5b50565b6000813590506122328161220c565b92915050565b6000806040838503121561224f5761224e61202d565b5b600061225d858286016121ed565b925050602061226e85828601612223565b9150509250929050565b61228181612202565b82525050565b600060208201905061229c6000830184612278565b92915050565b6000806000606084860312156122bb576122ba61202d565b5b60006122c9868287016121ed565b93505060206122da868287016121ed565b92505060406122eb86828701612223565b9150509250925092565b6000819050919050565b612308816122f5565b811461231357600080fd5b50565b600081359050612325816122ff565b92915050565b6000602082840312156123415761234061202d565b5b600061234f84828501612316565b91505092915050565b612361816122f5565b82525050565b600060208201905061237c6000830184612358565b92915050565b600080604083850312156123995761239861202d565b5b60006123a785828601612316565b92505060206123b8858286016121ed565b9150509250929050565b600060ff82169050919050565b6123d8816123c2565b82525050565b60006020820190506123f360008301846123cf565b92915050565b60006020828403121561240f5761240e61202d565b5b600061241d84828501612223565b91505092915050565b60006020828403121561243c5761243b61202d565b5b600061244a848285016121ed565b91505092915050565b60007fff0000000000000000000000000000000000000000000000000000000000000082169050919050565b61248881612453565b82525050565b612497816121c4565b82525050565b600081519050919050565b600082825260208201905092915050565b6000819050602082019050919050565b6124d281612202565b82525050565b60006124e483836124c9565b60208301905092915050565b6000602082019050919050565b60006125088261249d565b61251281856124a8565b935061251d836124b9565b8060005b8381101561254e57815161253588826124d8565b9750612540836124f0565b925050600181019050612521565b5085935050505092915050565b600060e082019050612570600083018a61247f565b81810360208301526125828189612149565b905081810360408301526125968188612149565b90506125a56060830187612278565b6125b2608083018661248e565b6125bf60a0830185612358565b81810360c08301526125d181846124fd565b905098975050505050505050565b600080fd5b600080fd5b600080fd5b60008083601f840112612604576126036125df565b5b8235905067ffffffffffffffff811115612621576126206125e4565b5b60208301915083600182028301111561263d5761263c6125e9565b5b9250929050565b600080fd5b60006060828403121561265f5761265e612644565b5b81905092915050565b6000806000608084860312156126815761268061202d565b5b600084013567ffffffffffffffff81111561269f5761269e612032565b5b6126ab868287016125ee565b935093505060206126be86828701612649565b9150509250925092565b60006020820190506126dd600083018461248e565b92915050565b600080604083850312156126fa576126f961202d565b5b6000612708858286016121ed565b9250506020612719858286016121ed565b9150509250929050565b7f4e487b7100000000000000000000000000000000000000000000000000000000600052602260045260246000fd5b6000600282049050600182168061276a57607f821691505b60208210810361277d5761277c612723565b5b50919050565b7f4e487b7100000000000000000000000000000000000000000000000000000000600052604160045260246000fd5b600081905092915050565b82818337600083830152505050565b60006127d883856127b2565b93506127e58385846127bd565b82840190509392505050565b60006127fe8284866127cc565b91508190509392505050565b7f54686973206d6573736167652068617320616c7265616479206265656e20657860008201527f6563757465642100000000000000000000000000000000000000000000000000602082015250565b60006128666027836120fd565b91506128718261280a565b604082019050919050565b6000602082019050818103600083015261289581612859565b9050919050565b7f4d61696e7461696e657220646964206e6f74207369676e2074686973206d657360008201527f7361676521000000000000000000000000000000000000000000000000000000602082015250565b60006128f86025836120fd565b91506129038261289c565b604082019050919050565b60006020820190508181036000830152612927816128eb565b9050919050565b6000604082019050612943600083018561248e565b612950602083018461248e565b9392505050565b600060608201905061296c600083018661248e565b6129796020830185612278565b6129866040830184612278565b949350505050565b60006080820190506129a36000830187612358565b6129b0602083018661248e565b6129bd6040830185612278565b6129ca6060830184612358565b95945050505050565b60006040820190506129e8600083018561248e565b6129f56020830184612358565b9392505050565b7f4e487b7100000000000000000000000000000000000000000000000000000000600052602160045260246000fd5b600060a082019050612a406000830188612358565b612a4d6020830187612358565b612a5a6040830186612358565b612a676060830185612278565b612a74608083018461248e565b9695505050505050565b6000608082019050612a936000830187612358565b612aa060208301866123cf565b612aad6040830185612358565b612aba6060830184612358565b95945050505050565b7f4e487b7100000000000000000000000000000000000000000000000000000000600052601160045260246000fd5b6000612afd82612202565b9150612b0883612202565b9250828201905080821115612b2057612b1f612ac3565b5b9291505056fea2646970667358221220f95f4b0ba7e3261692e7e50283501ce9f677ba4071965303a2f5bf5b03407d4764736f6c63430008180033",
  "linkReferences": {},
  "deployedLinkReferences": {}
}